:020000040800F2
:10000000B8BD0020DD010008E9720008AD55000808
:10001000317100088D110008F59E000800000000F5
:10002000000000000000000000000000F17E000859
:100030006D12000800000000677400089D80000831
:10004000F7010008F7010008F7010008F7010008B0
:10005000F7010008F7010008F7010008F7010008A0
:10006000F7010008F7010008F7010008F701000890
:10007000F7010008F7010008F7010008F701000880
:10008000F7010008F7010008F7010008F701000870
:10009000F7010008F7010008F7010008F701000860
:1000A000F7010008F7010008F7010008F701000850
:1000B000F7010008F7010008F7010008F701000840
:1000C000F7010008F7010008F7010008F701000830
:1000D000F70100086D870008F7010008F701000824
:1000E000DD180008F7010008F7010008F701000813
:1000F000F7010008F7010008F7010008F701000800
:10010000F7010008F701000851810008F701000815
:10011000F7010008F70100085D8100086981000807
:10012000BD110008F7010008F7010008F7010008F9
:10013000F70100080000000000000000F7010008BF
:10014000F7010008F7010008F7010008ED72000848
:10015000F7010008F7010008F7010008F70100089F
:10016000F7010008F7010008F7010008F70100088F
:10017000F7010008F7010008F7010008000000007F
:1001800000000000F701000800000000000000006F
:10019000F70100080000000000000000F70100085F
:1001A000000000000000000000000000F70100084F
:1001B000F7010008F7010008F7010008F70100083F
:1001C000F7010008DFF810D000F0B4FB004800474A
:1001D00055EA0008AFF30080B8BD0020064880470C
:1001E00006480047FEE7FEE7FEE7FEE7FEE7FEE71C
:1001F000FEE7FEE7FEE7FEE741810008C5010008D3
:100200002DE9F05F0546002092469B46884606464B
:10021000814640241BE0284641464746224600F0DE
:1002200053FA53465A46C01A914110D31146184604
:10023000224600F03AFA2D1A67EB01084F46224693
:100240000120002100F031FA17EB00094E41201E79
:10025000A4F10104DFDC484631462A464346BDE8A6
:10026000F09F40EA01039B0703D009E008C9121F71
:1002700008C0042AFAD203E011F8013B00F8013B60
:10028000521EF9D27047D2B201E000F8012B491E8C
:10029000FBD270470022F6E710B513460A46044623
:1002A0001946FFF7F0FF204610BD421E12F8013F2D
:1002B000002BFBD111F8013B02F8013B002BF9D1D7
:1002C0007047034611F8012B00F8012B002AF9D1E1
:1002D000184670472DE9FE4F804681EA0300C00FA3
:1002E0000C46009021F0004123F00045B8EB0200DD
:1002F000A94105D24046214690461C460B4602467F
:1003000023F00040104347D0270DC7F30A00C3F382
:100310000A510290401A019040286BDAC3F313008F
:1003200040F4801B0098924620B10023D2EB030AD0
:1003300063EB0B0B01985946C0F14002504600F0A8
:10034000B4F906460D4650465946019A00F0CCF9DC
:1003500010EB08006141002487EA115284EAE77338
:100360001A4340D0009A62B3019A012A4FEA075219
:1003700015DC001B61EB02014FF0004202EA07525C
:10038000CDE90042001C41F5801132462B4600F0B9
:1003900003FA03B0BDE8F08F40462146F9E7001BA1
:1003A00061EB0201001C41F5801300185B4120182D
:1003B000A2F5001747EB030140EAD570B6196D416D
:1003C00011E06D084FEA360645EAC0754FEA07525C
:1003D000001B61EB0201001C41F5801149084FEA46
:1003E00030000019514132462B4603B0BDE8F04FB2
:1003F00000F0C3B90098012240000023D0EB0202B4
:1004000063EBE073009821464FEAE074B8EB00001C
:1004100061EB0401E9E783F000435BE781F0004111
:1004200058E72DE9FE4F81EA030404F0004421F06F
:10043000004100944FF0000B23F0004350EA010408
:100440005ED052EA03045BD0C3F30A54C1F30A55E9
:100450002C44A4F2F3340194A0FB0254C1F3130121
:1004600041F48011C3F3130343F4801301FB0244EE
:1004700000FB034E840A970A44EA815447EA8357F3
:10048000A4FB076802958D0A05FB07854FEA932CAC
:1004900004FB0C542705029D4FEA065847EA16371D
:1004A000B5EB08056EEB070C870E920E47EA811735
:1004B00042EA8312A7FB0201B6EB0B0164EB0004D6
:1004C0002B0D43EA0C335E1844EB1C50DA465146C0
:1004D000E7FB0201C5F313044FEA0B3343EA14535D
:1004E0004FEA0432019C43EA0603A4F10C0402948F
:1004F000009CCDE900B400F04FF903B0BDE8F08FE7
:1005000000200146F9E72DE9F04D81EA030404F0EB
:10051000004B21F0004514464FF0000A23F0004143
:1005200050EA050220D054EA01021DD0C5F30A5753
:100530000246C5F31303C1F31300C1F30A5640F496
:10054000801543F48013A7EB0608101BD64608F26B
:10055000FD3873EB050002D308F1010801E09218A1
:100560005B41B8F1000F03DA00200146BDE8F08DD1
:1005700000204FF48011064684460EE0171B73EBF3
:10058000050705D3121B63EB050306434CEA010C78
:1005900049084FEA300092185B4150EA0107EDD15B
:1005A00052EA030012D082EA040083EA05010843FC
:1005B00005D0101BAB4106D20122002306E0002229
:1005C0004FF0004302E06FF0010253101AEB0600F7
:1005D0004CEB085110EB0A0041EB0B01BDE8F04D6C
:1005E00000F0CBB80EB5C10F80EAE0700844CA072E
:1005F000002140F233438DE80E000A460B4600F01E
:10060000CBF803B000BD0EB540F23341029100219A
:10061000CDE900110A460B4600F0BEF803B000BD5C
:1006200000F0004230F000400AD0C10D01F56071C9
:10063000C0F3160042EA0151C20840071143704757
:1006400000200146704701F0004330B421F0004122
:1006500050EA010206D00A0DA2F56072C1F313013F
:10066000002A02DC30BC00207047440F44EAC10479
:10067000C100E01830BC00EBC25000F047B830B504
:100680000B46014600202022012409E021FA02F550
:100690009D4205D303FA02F5491B04FA02F52844EA
:1006A000151EA2F10102F1DC30BD202A04DB203A44
:1006B00000FA02F1002070479140C2F1200320FAB5
:1006C00003F3194390407047202A04DB203A21FAB3
:1006D00002F00021704721FA02F3D040C2F120025B
:1006E0009140084319467047202A06DBCB17203A71
:1006F00041FA02F043EAE07306E041FA02F3D04027
:10070000C2F1200291400843194670470029A8BF52
:100710007047401C490008BF20F00100704710B42A
:10072000B0FA80FC00FA0CF050EA010404BF10BCDF
:10073000704749B1CCF1200421FA04F411FA0CF10C
:1007400018BF012121430843A3EB0C01CB1D4FEA45
:1007500000614FEA102042BF002010BC704700EB40
:10076000C35010440029A4BF10BC7047401C49006E
:1007700008BF20F0010010BC704710B5141E73F1C3
:10078000000408DA401C41F1000192185B411A4351
:1007900001D120F0010010BD2DE9F04D92469B469D
:1007A00011B1B1FA81F202E0B0FA80F22032904643
:1007B000FFF77BFF04460F4640EA0A0041EA0B01BF
:1007C00053465A46084313D0114653EA010019D044
:1007D000C8F140025046FFF777FF05460E465046E7
:1007E00059464246FFF761FF084305D0012004E067
:1007F00020463946BDE8F08D0020054346EAE07604
:100800002C4337430A986305E40AA0EB0800002252
:10081000FD0A44EA47540A3002D500200146E9E7C0
:10082000010510196941DDE9084500196941BDE874
:10083000F04DA2E770B521F0004303430CD0C1F3A3
:100840000A550024D5EB040564EB0403D617AD1A52
:10085000B34102DB0020014670BD201841EB02517C
:1008600070BD2DE9F04D00231A461B1A8A4103DBA7
:1008700000200146BDE8F08DC1F30A52C1F3130117
:1008800041F480154FF0000BD10702D100186D41E3
:10089000521E0027044640F2FF11384601EB620A5F
:1008A0003E468046024600204FF48011FFF70CFFC1
:1008B000C2197141BB1846EB0100B4EB030C75EB98
:1008C000000C04D3E41A65EB000517460E46241904
:1008D00008F101006D4180463428E3DDF91946EB4B
:1008E0000600091BA84103D24FF0FF32134601E076
:1008F000002213461BEB070046EB0A51BDE8F04D02
:10090000FFF73BBF30B5041E71F1000404DB4FF06C
:100910000044404264EB0101141E73F1000405DB46
:100920001C464FF00043524263EB0403994208BF58
:10093000904230BD064C074D06E0E06840F00103F0
:1009400094E8070098471034AC42F6D3FFF73EFC1A
:10095000D83D0108F83D010870B58C1810F8015B0E
:1009600015F0070301D110F8013B2A1106D110F848
:10097000012B03E010F8016B01F8016B5B1EF9D14C
:100980002B0705D40023521E0DD401F8013BFAE7D2
:1009900010F8013BCB1A921C03E013F8015B01F83D
:1009A000015B521EF9D5A142D8D3002070BD0000D2
:1009B0002DE9F74F06462DED020B0D462DED0E8B62
:1009C00088B0F0EE609AB0EE40BAB0F882060090BF
:1009D000304605F0D1FEB0EE409A2946304605F08B
:1009E0005FFEF0EE408A9FEDFCAA38EE8A0A10EE18
:1009F000100AFFF715FE41EC100B9FEDF8CBB0EE9F
:100A00004C1AF0EE6C1A0BF08BFF51EC100BFFF749
:100A10001AFE39EE8A0A08EE100A10EE100AFFF7E5
:100A2000FFFD41EC100BB0EE4C1AF0EE6C1A0BF01F
:100A300077FF51EC100BFFF706FE00EE100A30EEC8
:100A4000481AC1EE0B0A70EE609AD5ED0B0A9FEDC5
:100A5000E51AB7EE008AE44BB0EE480A00EE810AD0
:100A6000C8EE000ACDED030A8DED048AB5F9400009
:100A7000D5ED0D0A00EE100AB8EEC01AB0EE480A25
:100A800000EE810A8DED050AB5F94210D5ED0E1A7A
:100A9000081A00EE900AB8EEE01AF0EE480A41EEAD
:100AA000810A20EE800A8DED060AB6F8140600EEE3
:100AB000100AB8EE400A10EE100ADFEDCCAA9842F8
:100AC00001DD30EE6A0AB5F91400802100EE900ACB
:100AD000B6F8800601AAF8EEE00A01EA5017B6F867
:100AE0001006C0EE80BA00EE100AB8EE400A8DED96
:100AF000010AB6F8500600EE100A0020B8EE400ACF
:100B00008DED020A02EB8001994691ED000A10EE8C
:100B1000104A9C4203DD30EE6A0A81ED000A20EEA5
:100B20002B0A401C022881ED000AEBDBB3EE090A18
:100B300005F5005038EEC0DA95ED081AB0F94C1AF8
:100B4000F0EE480A00EE101A41EE0D0A95ED071A74
:100B5000B8EEC00A60EE801A9FEDA50A05F5205B8D
:100B600079EE40DAB0EE480A01EE2D0A9DED011A49
:100B700001EEC01A8DED011AB0F94E0A95F8252044
:100B800001EE100ABA42B8EEC11A02D120EE811A63
:100B900005E0DBED941A31EE211A21EE201ADDED8D
:100BA000020A002441EE400ACDED020AE31704EBED
:100BB000936104EBD36089114011494200EB41007D
:100BC00042B204EBD4704010404204EB400004F108
:100BD000020C50404FEAEC784FFA80FA0CEB987C0C
:100BE000E01C4FEAE0784FEAAC0C00EB9870611C17
:100BF000ACEBA0004FEAE17C01EB9C7100EBA100A3
:100C000004EB9371A0EBA1005342012101EB4301DE
:100C1000484341B2002F7AD04FEA0A00B6F8823634
:100C2000834275D136F8140000EE100AB8EE400A7F
:100C300010EE100A484501DD30EE6A0A05EB84002B
:100C400000F5805393ED911A60EE2B0A05EB4403F7
:100C5000B0EE480AB3F9443C01EE0D0A01EE103A39
:100C600000F5E053B8EEC11AD3ED911A95F825308E
:100C700020EE011AB0EE480ABB4201EEAD0A41EE89
:100C8000400A13D04FF0FF3303EB420200EE102A6C
:100C90009BED961AB8EEC00A41EE000A00EE101A5B
:100CA0009BED951AB8EEC00A41EE400A009A01A9E0
:100CB00001EB820195ED060AF0EE488A80EE8B9AF0
:100CC000D1ED000A00EE609AD0ED110A05EB82002A
:100CD00000F5205090ED911A40EE410A95ED0A1A68
:100CE000B0EE680A01EE0D0A20EE80EAB0EE490A85
:100CF0000EEE290A10EE100AFFF792FC41EC1C0BD5
:100D00001EEE100AFFF78CFC41EC100B01E054E0E2
:100D1000C6E09FED381B0BF003FE53EC1C2B51EC8F
:100D2000100BFFF77EFBFFF78EFC8046286BFFF76A
:100D300077FC41EC1C0B4046FFF772FC41EC100BBA
:100D40000CF016FC0CF014FC53EC1C2B51EC100BAB
:100D5000FFF767FBFFF777FC95ED0C1AF0EE680ADA
:100D600000EE100A41EE4A0A0EEE200AC9EE000A11
:100D700030EEA90A10EE100AFFF752FC41EC100BFE
:100D80000CF0F6FB0CF0F4FB9FED1C1B51EC100B70
:100D900053EC112BFFF73FFBFFF755FC00EE100A59
:100DA000B5F93E0000EE900AF8EEE00AF4EEC00A53
:100DB000F1EE10FA03DD002032E010462EE7B5F91F
:100DC000400000EE900AF8EEE00AF4EEC00AF1EE00
:100DD00010FA17DD012023E0339388430000000060
:100DE000000010400000204200FEFF460000804747
:100DF0003333534000000000000008400000006052
:100E000066127140B5F9420000EE900AF8EEE00A71
:100E1000F4EEC00AF1EE10FA01DD022000E003203A
:100E200005EB800191ED0B1A05EB4001B1F93C1087
:100E300000EE901A03A901EB8000F8EEE00A30EE14
:100E4000600A41EE008A90ED000A20EE0E0A28EEBC
:100E5000800AC9EE000A30EEA90A10EE100AFFF768
:100E6000DFFB41EC100B0CF083FB0CF081FB9FEDE2
:100E7000121B51EC100B53EC112BFFF7CCFAFFF7C0
:100E8000E2FB00EE100ADFED0E0AB2EE041A1A9928
:100E900040EE010ABCEEE00A10EE100A21F8140040
:100EA000641CB4F5407FFFF681AE08B0BDEC0E8B3C
:100EB00005B0BDE8F08F0000666666666612714098
:100EC0000000C84310B50146806B026C12F0500F51
:100ED00005D0026CD20626D501F0ECFB10BD016CEA
:100EE00041F40071016401688A6812F0405F17D113
:100EF000027EAAB9CA6A12F4700F02D08A6852053B
:100F00000ED44A6822F020024A60016C21F48071FC
:100F10000164016CC90403D4016C41F00101016456
:100F200001F0C6FB10BD806BC26CBDE810400846E6
:100F3000104710B5806B40210164416C41F0040101
:100F4000416401F0B7FB10BD10B5806B01F0B1FB3F
:100F500010BD0000464910B54A6822F440324A608C
:100F60004A6843681A434A6001684A6822F48072FA
:100F70004A6001684A68036942EA03224A600168DC
:100F80004A6822F040724A6001684A6883681A43DE
:100F90004A6001688A6822F400628A6001688A688F
:100FA000C3681A438A60816A6FF07062D142016837
:100FB0008A6822F070628A6001688A680CD0836A4D
:100FC0001A438A6001688A6822F040528A60016888
:100FD0008A68C36A1A4301E022F040528A600168BD
:100FE0008A6822F002028A6001688A68037E42EA07
:100FF00043028A6090F82010002901684A680FD0E7
:1010000042F400624A6001684A6822F460424A6021
:1010100001684A68174C436A04EB43331A4301E002
:1010200022F400624A600168CA6A22F47002CA624D
:101030000168CA6A838B104C04EB03531A43CA62DB
:1010400001688A6822F400728A6001688A6890F8F0
:10105000303042EA43228A6001688A6822F4806262
:101060008A6001688A68406942EA8020886010BD11
:101070000023014000E0FFFF0000F0FF10B5034631
:101080000088012206E000BF33F81240844200D9F4
:101090002046521C8A42F7DB10BD30B504460020C2
:1010A0002388012206E034F812509D4201D92B46D4
:1010B00090B2521C8A42F6DB30BD000010B50346E8
:1010C0000088012206E000BF33F81240844200D2BB
:1010D0002046521C8A42F7DB10BD03464FF0FF301A
:1010E000934208D3981A64235843891A90FBF1F06D
:1010F000632800DD632070472DE9F84F214A4FF047
:10110000660ECDF800E032F810B002EB400000218E
:10111000B0F840A0B0F80290B0F84270009801EB2F
:1011200081084843C0F5007083B2C3F5007085B2F2
:10113000002000BF00FB0EF2C2F5007292B20BFB62
:1011400002F60AFB02FCC2F50074A4B209FB04F229
:101150005E435A437C430CFB056604FB0522B4182E
:101160004FF6FF7202EAA44408EB0006064A401C50
:10117000052822F81640DDDB491C0529CEDBBDE839
:10118000F88F0000C4650020C46B0020FEE7411A00
:1011900001F121026FF00500032A06D34A1C032A3D
:1011A00003D31F39032900D300207047007D10F0BE
:1011B000400001D06FF0060070470000014801F0C8
:1011C000F7BB00008015002001681823CAB2103A4E
:1011D000B2FBF3F2054B6FF30901032A9B5CC36575
:1011E00000D9091D8165084670470000E4F5000834
:1011F00010B5014600208B698A6A4FF0C07453B164
:10120000B3F5005F15D072B1012A0CD0022A0AD0C2
:10121000032A09D104E01AB1012A06D0022A03D117
:10122000C96AC90100D5012010BDC96AA142FAD01E
:1012300010BD002AF7D0012AF2D0022AF3D0032AE7
:10124000F3D010BD30B50468256825F480252560ED
:10125000046863608368402B036803D0996000686A
:10126000C26030BD9A600068C16030BD7047000048
:10127000F1B516484FF46177154C05684FF0E02240
:10128000009820E03B46984200D803469069B5FBA1
:10129000F4F101FB1301002905DB966986420FDAA0
:1012A0008E42FADA0CE0B5FBF4F606EB460CCCEB1A
:1012B000C61601EBC60691698142FCDDB142FADC3B
:1012C0000098C01A00900028DCD1F8BD0000002072
:1012D00040420F00FEB5002701250C260097CDE9FE
:1012E00001654FF6FF74234610A2394640F20B10F9
:1012F00004F0EDFE0097CDE9016523460CA2002124
:1013000040F2191004F0E3FE4FF4937506232A46C9
:101310000221A81E009404F01BFB07234FF49D72CA
:1013200000212846009404F0F0FAFEBD5858000051
:10133000250000002DE9FF5F061E4FF0000440F27B
:10134000171240F20B104FF001084FF00C094FF448
:10135000784573DD4FF4947A06EB06174FF0640B73
:10136000092E44DD132E01DD4FF6FF750B230021FE
:1013700040F20B10009404F0EBFA0A2096FBF0F117
:1013800091FBF0F200FB121130318DF80C1096FB3E
:10139000F0F100FB116030308DF80D00CDE900490F
:1013A0008DF80E402B4603AA002140F20B10CDF819
:1013B000088004F08CFE07234FF49D72012140F257
:1013C0002710009404F0C4FA54465E4607E0A2B227
:1013D000A0B206230221009504F03EFA641C97FB9C
:1013E000F6F000F22910A042F1DCBDE8FF9F0B23CC
:1013F0000021009404F0ACFA0A2096FBF0F100FB07
:10140000116030308DF80C00CDE900498DF80D40A9
:101410002B4603AA00214FF48770CDF8088004F012
:1014200056FE07234FF49D72012140F227100094CD
:1014300004F08EFA2E4654465D4608E00EE0A2B255
:10144000A0B206230221009604F006FA641C97FB62
:10145000F5F000F22910A042F1DCC6E70B230021D1
:101460000646009404F074FACDE900492B4610A218
:1014700000213046CDF8088004F029FE00944FF496
:101480009D7640F22714072332460121204604F0BE
:101490005FFA0723324601212046009504F0DCF96B
:1014A000072322460121701E009504F0D5F99CE720
:1014B000585800002DE9FE434FF440716348FFF790
:1014C000ECFD00F01F0101EB8101052202EB41045C
:1014D000400900EB8000092101EB4005A4F5807074
:1014E0003B3801D1641EA4B2EF2D00D1EE25201FA0
:1014F00087B200264FF49A784FF6FF79B819811F0A
:10150000414504D880B24A46294604F0F3F9761CD6
:10151000092EF3DB2D1FAFB200254E467819A0F13E
:101520000A01E52904D281B23246204604F0E2F9EC
:101530006D1C092DF2DB10270024CDE900470125A1
:10154000B046334642A20A210820029504F0BFFDAE
:10155000414E00944346B2680A213C20A2F5C8726D
:1015600004F069FECDE9004743463CA20A21F2207F
:10157000029504F0ACFD009472684FF493794346F1
:101580000A214846A2F5C87204F055FECDE900478D
:10159000434634A21C21F220029504F098FD334802
:1015A0000094428843461C21484604F0ADFDCDE935
:1015B000004743462EA2CC210820029504F087FD67
:1015C000CDE9004743462BA2CC211220029504F01E
:1015D0007EFD0023424696ED060ACC212D2004F024
:1015E000DFFECDE90047434623A2DE210820029515
:1015F00004F06DFD0023424696ED040ADE213A20F8
:1016000004F0CEFE434604227C21A02000F008F91D
:101610000094F2684346DE21A020A2F5C87204F0CF
:101620000AFECDE90047434615A2DE21FA200295C5
:1016300004F04DFD96ED050A03B042464846BDE86C
:10164000F0430023DE2104F0ABBE0000C46500209F
:101650004D696E3A00000000280300204D61783A81
:10166000000000004469733A000000006800002098
:10167000450000003D0000005664643A0000000090
:1016800044543A002DE9F84F514A002102F5C06454
:101690005FF00000C0EB411302EB430300EB411588
:1016A000DB8F401C143324F815302028F2DB491C52
:1016B0001829EDDB4FF4407529464648FFF7DEFC5C
:1016C000454E294670604348FFF7F8FCB060B4F817
:1016D0001E03B4F82013B4F860230844B4F85E1372
:1016E000DFF8F8B01144084480080025B2460BF139
:1016F0003209F0605FF0000404EB451080B2FFF7A0
:10170000FBFC374F002356464FEA0B08D6E901127F
:1017100038F81300A1F5C371A0F5C870A2F5D7720F
:1017200006F092FE37F8100028F813005B1C192B06
:10173000ECDB00231A464846002102EB820C00BF76
:1017400038F813604F0007EB8C075B1C20F817601C
:1017500000EB4707491C7E80BE82FE829BB20529B2
:10176000EEDB521C052AE7DB00221C4B114604EB82
:101770008406FA3300204FF49B774F4307EB46076C
:1017800039F812C007EB0008521C401C23F818C09F
:1017900092B20A28F4DB491C0A29EBDB641C1F2CDB
:1017A000AADB0E481321FA30009005EB850001EB0F
:1017B00040018BB2092101EB400081B240F23B12A3
:1017C000052004F0E5F86D1C172D93DBBDE8F88FBC
:1017D000C45F0020C465002028030020C46B0020E3
:1017E000203B010838B54FF6FF70009008234FF4F6
:1017F00083720021052004F088F8084D002400BF02
:1018000035F814000090A01D82B280B20823012197
:1018100004F022F8641CFF2CF2DD38BD203B0108E7
:101820002DE9FF4F83B090460E460746002514462B
:101830004FE000BF381BA6EB050902901FFA89F1A3
:1018400080B2069A04F056F8381901901FFA89F10F
:1018500080B2069A04F04EF8301981B2A7EB050960
:1018600000901FFA89F0069A04F044F8A6EB040BE6
:101870001FFA8BF11FFA89F0069A04F03BF80198E1
:1018800006EB050A1FFA8AF180B2069A04F032F8D4
:1018900007EB05091FFA8BF11FFA89F0069A04F08D
:1018A00029F80098069A81B21FFA89F004F022F80C
:1018B00002981FFA8AF180B2069A04F01BF86D1C98
:1018C00005FB05F004FB040118FB08F0814200DD74
:1018D000641EA542AEDD07B0BDE8F08F4FF4806016
:1018E00001F0F0B972B6FEE72DE9F34F04462DED95
:1018F000048B1E21BBB0B0F84000B4F8429001EB5D
:10190000103600F00F07C0F3031BC0F3032A0022B8
:1019100020A904EB42009300B0F84400521C00F0F0
:101920000F0541F8235001EB8303C0F303155D60FD
:10193000C0F30325000BC3E90250062AE9DB0020AF
:1019400051F82020072A02DD103A41F82020401CDF
:101950001828F5DB00206A4604EB40038500B3F845
:101960005030401C03F00F0C42F825C002EB8505F7
:10197000C3F3031CC5F804C0C3F3032C1B0BC5E958
:1019800002C30828E8DB002052F82030072B02DDD4
:10199000103B42F82030401C2028F5DB012000FAE3
:1019A00007F800253046FEF72EFE9FED308BCDE97F
:1019B0003801002606EB451004EB4001B1F8801019
:1019C000C1F3051100EE101A4099B8EE401A01EB70
:1019D0008007284911EE100A87ED111A884205DDAB
:1019E0009FED250A31EE400A87ED110A00EE108ABC
:1019F00020A8D7ED110AB8EEC00A50F825005DF80E
:101A0000261000FA0AF000EB090201FA0BF120EEB1
:101A1000800A501800EE900AF8EEE00A30EE800AD4
:101A2000F0EE680A87ED110ADDE9380141EC110B8F
:101A3000B0EE480A0AF074FFB0EE409AF0EE609AF9
:101A4000786CFEF7EDFD53EC192BFEF75CFDFEF70D
:101A5000FAFD761C7864202EACDB6D1C182DA8DBFB
:101A60003BB0BDEC048BBDE8FC8F00000000000023
:101A7000000000400000F8410000804210B5828A5A
:101A8000802303EA121282F08003B0F86A20204C0F
:101A900002F03F0000EE100AB8EE400A10EE100A05
:101AA000A04203DDDFED1B0A30EE600ADFED1A0A0B
:101AB000C2F38410194C60EE200A00EE100A9FED6C
:101AC000181AB8EE400A10EE100AA04201DD30EEFE
:101AD000410AF6EE001AD00A60EE211A00EE100A52
:101AE000B8EE400A10EE100AA04201DD30EE410AC5
:101AF000B4EE001A81F8253001F5205120EE010ADC
:101B0000C1ED940AC1ED951A81ED960A10BD000051
:101B10000000F841000080420000803D000070415C
:101B2000000000422DE9F04106462DED088B0D46E0
:101B30001B21B0F84000B6F8742001EB1031C2F35D
:101B4000090060F30F04B0F5007F03DBA0F58060AF
:101B500060F30F04900A60F31F441F2802DD403831
:101B600060F31F4404EB244060F31F44B6F8720096
:101B7000594AC0F3090000EE100AB8EE408A18EE88
:101B8000100A904203DD9FED550A38EE408A084660
:101B9000FEF739FD41EC110B9FED519BB0EE490A68
:101BA000F0EE690A0AF0BCFEB0EE401AF0EE601AE0
:101BB000B0EE41AAF0EE61AA18EE100AFEF730FD71
:101BC00053EC1A2BFEF79FFCFEF73DFD01EE900A49
:101BD000B6F8720011EE907A800A00EE100A4249BF
:101BE000B8EE401A11EE100A884203DD9FED3F0A5D
:101BF00031EE401ADFED3E0AB7EE000A96F87600A5
:101C000001EE200ADFF8EC809FED3BAA60EE218A0E
:101C100000EE100AB8EE408A18EE100A404501DDC9
:101C200038EE4A8A96F87000C0F303100830FEF7C9
:101C3000EAFC41EC110BB0EE490AF0EE690A0AF039
:101C40006FFEB0EE40BAF0EE60BA18EE100AFEF782
:101C5000E7FC53EC1B2BFEF756FCFEF7F4FC286266
:101C6000B6F87600000A00EE100AB8EE408A18EEC8
:101C7000100A404501DD38EE4A8AB6F87000C0F31C
:101C80000320FEF7C0FC41EC110BB0EE490AF0EE68
:101C9000690A0AF045FEB0EE409AF0EE609A18EE3E
:101CA000100AFEF7BDFC53EC192BFEF72CFCFEF7D7
:101CB000CAFCE86105F5205005F50055C0F84472EE
:101CC000C0ED928AA5F84C4A2014A5F84E0ABDEC46
:101CD000088BBDE8F08100000080FF4300008044D5
:101CE00000000000000000400000F84100008042B9
:101CF0000000003C0000FE42000080432DE9F0415E
:101D00000E46002107460C460D4608464FF6FF7367
:101D100006EB410202F50052491CA2F85C3A89B276
:101D2000A2F8663A0529F3D300214FF4407300BFAF
:101D300007EB4102B2F88020BAB1D20707D006EB18
:101D4000450202F500526D1CA2F8661AADB2491C9C
:101D500089B2994203D2052C01D2052DE8D3042C77
:101D60000CD96FF00200BDE8F08106EB440202F5E9
:101D70000052641CA2F85C1AA4B2E8E7042D02D950
:101D80006FF00300EFE76119042902D96FF0040036
:101D9000E9E7002317E006EB43015F1C01F500585B
:101DA0000DE000BF06EB470000F50050B0F85C1AEC
:101DB000B8F85C0AFFF7EBF90028D4D17F1CA742E2
:101DC000F0DB5B1C9BB2A342E5D3002317E006EBDC
:101DD00043015F1C01F500580DE000BF06EB470012
:101DE00000F50050B0F8661AB8F8660AFFF7CFF9A8
:101DF0000028B8D17F1CAF42F0DB5B1C9BB2AB422A
:101E0000E5D3002317E006EB4301002701F5005856
:101E10000DE000BF06EB470000F50050B0F8661A71
:101E2000B8F85C0AFFF7B3F900289CD17F1CAF42D9
:101E3000F0DB5B1C9BB2A342E5D394E7B0F96000F2
:101E4000B0F5004F00DB00B288827047B0F8780030
:101E50000A4A000A00EE100AB8EE400A10EE100A14
:101E6000904203DDDFED060A30EE600ADFED050A81
:101E700020EE200A81ED0A0A704700000000FE42B1
:101E8000000080430000003930B530F87E2F6FF03D
:101E90002703C2F3013202EB820252008B87002338
:101EA000CB8710F80439C3F30313A1F840308488BA
:101EB000C4F3032413FB02F3A1F8403014FB0232F5
:101EC000A1F842200279204D02F00F0301220833CD
:101ED0009A400378DFED1D0A00EE103AB8EE400A92
:101EE00081ED0B0A03881B0A00EE103AB8EE400A97
:101EF00081ED0C0A837800EE103AB8EE400A81EDCD
:101F00000D0A4088000A00EE100A0020B8EE400AD0
:101F100081ED0E0A01EB800393ED0B0A10EE104ADF
:101F2000AC4203DD30EE600A83ED0B0AB0EE401ADE
:101F300000EE102A401C0428B8EEC00AC1EE001AB8
:101F4000C3ED0B1AE6DB30BD0000FE42000080430B
:101F50002DE9F04F8B462DED048B064683B0B0F88B
:101F60006C1041F307207F2800DD40B28DF8080097
:101F700048B27F2800DD40B28DF80A00B6F86E1036
:101F800041F307207F2800DD40B28DF8090048B2F8
:101F90007F2800DD40B28DF80B0096F87000002518
:101FA000C0F3031100F00F02012000FA02F8DFF87D
:101FB000E4900DF1080A01F10800FEF724FB9FED03
:101FC000368BCDE90001002404EB4511C81701EB65
:101FD000D06201EB906080115211404202EB400050
:101FE00001EBD17222F001028A1A02EB4000C2B268
:101FF00006EB41000BEB810790F8800007F5805756
:10200000C0F3420000EE100AB8EE400A10EE100ACB
:1020100087ED910A484505DDF2EE000A30EE600AD0
:1020200087ED910AF0EE400A00EE108A1AF90200DC
:10203000B8EEC00A20EE800A00EE900AF8EEE00A40
:1020400030EE800AF0EE680A87ED910ADDE90001C2
:1020500041EC110BB0EE480A0AF062FCB0EE409A77
:10206000F0EE609AD7F84402FEF7DAFA53EC192B37
:10207000FEF749FAFEF7E7FA641CC7F84402202C81
:10208000A2DB6D1C182D9EDB03B0BDEC048BBDE8FC
:10209000F08F000000004040000000000000004001
:1020A0002DE9F04788462DED048B82B0B0F868200A
:1020B000110B072900DD10398DF80010C2F3032140
:1020C000072900DD10398DF80210C2F3031107292A
:1020D00000DD10398DF8011002F00F01072900DD35
:1020E00010398DF80310B0F870000025C0F30320FC
:1020F0006F46FEF788FA9FED238B8A4681460024BF
:1021000004EB4510C11700EBD16200EB916189111E
:102110005211494202EB410100EBD07222F0010260
:10212000821A02EB4101C9B2795608EB800600EE33
:10213000101A06F5E0564AEC119BB8EEC00AF0EE14
:10214000680A86ED910AB0EE480A0AF0E9FBB0EEA3
:10215000409AF0EE609AD6F84402FEF761FA53EC2A
:10216000192BFEF7D0F9FEF76EFA641CC6F844028C
:10217000202CC5DB6D1C182DC1DB02B0BDEC048B1F
:10218000BDE8F08700000000000000402DE9F04F9E
:102190008B46018CB0F92240B8B001F00F09C1F3B1
:1021A000031CC1F3032AB4F5004F00DB24B2002165
:1021B00020AA00EB41038D009B8C491C03F00F0605
:1021C00042F8256002EB8505C3F303166E60C3F386
:1021D00003261B0BC5E902630629EADB5FF0000159
:1021E00052F82130072B02DD103B42F82130491C08
:1021F0001829F5DB0023694600EB43059E002D8E70
:102200005B1C05F00F0741F8267001EB8606C5F34D
:1022100003177760C5F303272D0BC6E90275082B5A
:10222000EADB002351F82350072D02DD103D41F871
:1022300023505B1C202BF5DB0023964600225EF822
:10224000235005FA0AF500BF02EB431600EB4607E0
:102250000BEB4606B7F88070BF0AA6F8447C1F2F28
:1022600002DD403FA6F8447C31F82280BFB207FA75
:1022700009F708FA0CF8A84427444744521CA6F86A
:10228000447C202AE0DB5B1C182BD7DB38B0BDE890
:10229000F08F000070B50C462DED048B0546B0F8AC
:1022A0006410254A880A00EE100AB8EE400A10EEC3
:1022B000100A904203DDDFED210A30EE600ADFED07
:1022C000200AC1F309001F4920EE208A00EE100AFF
:1022D000B8EE400A10EE100A884203DDDFED1A0A5C
:1022E00030EE600AF4EE000AB5F862609FED171B4D
:1022F00060EE208A9FED170B0AF012FB288CB0EEDF
:10230000409AF0EE609A00F47040FEF77CF953ECCE
:10231000192BFEF7F8F89FED111B53EC112BFDF76D
:10232000D9FFFEF790F984ED018AC4ED028AA681F7
:102330002061BDEC048B70BD0000F84100008042BC
:10234000000080390080FF4300008044000000004E
:1023500000002C40000000000000004000000000D1
:102360000000204090F87800094A00EE100AB8EE0C
:10237000400A10EE100A904203DDDFED060A30EE4F
:10238000600ADFED050A20EE200A81ED060A70479B
:102390000000FE42000080430000003DB0F86620CF
:1023A000100A7F2801DDA0F580704001D2B24FF401
:1023B000404303EB421208804A807047002200F03D
:1023C00001B8000030B50E4B054601205C7A002CA8
:1023D00014D1587A1C54587A03EB800045605D7A1A
:1023E00003F108002A54587A421C5A72303008709F
:1023F0003A2048702F208870CC70002030BD00003B
:1024000018850020002100F001B800000B4910B52C
:1024100002464B7A0120002B0FD01278303AD2B20C
:1024200001EB82035C68002C07D000200A4458604E
:102430001072487A401E4872002010BD1885002096
:10244000F0B500233C4A9E464FF00A0C012902D009
:10245000022938D06EE0394C002304F1280100BF76
:1024600004EB43056D8824F8135021F813505B1CCE
:10247000DBB2132BF4D3E084C8841388002500203A
:1024800001EB400731F810607C88A64203D97E80BA
:10249000234621F81040401CC0B21328F0D36D1C15
:1024A000EDB2132DEBD313809369052031F8104062
:1024B000401CC0B223440F28F8D3B3FBFCF083B216
:1024C000C2F818E036E01D4C0023503404F1280116
:1024D00004EB43056D8824F8135021F813505B1C5E
:1024E000DBB2132BF4D3E084C8845388002400208B
:1024F00001EB400631F810707588AF4203D9778040
:102500002B4621F81050401CC0B21328F0D3641C95
:10251000E4B2132CEBD35380D369052031F810407B
:10252000401CC0B223440F28F8D3B3FBFCF083B2A5
:10253000C2F81CE01846F0BDD8040020C4AC00204E
:1025400001480CF041BF0000F02C002078B50024B9
:10255000009490F83C20012A19D0012280F83C20F8
:102560000A6807230568092A13D9EE680A3A02EBBC
:10257000420293409E43EE600B788A680A3B03EB6D
:1025800043039A400368DD682A43DA6010E00220C2
:1025900078BD2E6902EB420293409E432E610B7878
:1025A0008A6803EB43039A4003681D692A431A6152
:1025B0004A681F23072A13D205686E6B521E02EB6E
:1025C000820293409E436E630A8893B20A79521E38
:1025D00002EB820293400268556B2B43536327E062
:1025E00005680D2A12D22E6BD21F02EB8202934095
:1025F0009E432E630B790A88DB1F92B203EB8303A1
:102600009A4003681D6B2A431A6311E0EE6A0D3A83
:1026100002EB820293409E43EE620B790A880D3BE7
:1026200092B203EB83039A400368DD6A2A43DA62BD
:102630001B4B0568194A9D420AD10D68122D07D11E
:10264000556825F400055560556845F480055560CA
:1026500005689D421DD1134D0B68AB4201D0112B73
:1026600017D1536823F480035360536843F4000385
:1026700053600968A9420CD10B490C4A0968B1FBA7
:10268000F2F101EB8101490000E0491E00910029AF
:10269000FBD180F83C40002078BD000000230140C1
:1026A00000200140120000100000002040420F00F6
:1026B00070477047704770B504004FF0000503D0B5
:1026C000206C002610B107E0012070BD204600F00C
:1026D0001DF8666484F83C60206CC00610D4206C41
:1026E00020F4885040F0020020642046FEF732FCBF
:1026F0006664206C20F0020040F00100206400E0DD
:10270000012584F83C60284670BD000070B586B095
:10271000064614216846FDF7BDFD1D493068884214
:1027200034D11C480025016841F4807101600068C3
:1027300000F48070059017481438016841F00401D6
:1027400001600068694600F00400059001200090D7
:102750000320CDE90105104800F0C0FA104C0F48E5
:10276000C4E900050015A560C4E90350400060619C
:102770008000A0614011C4E907052046656200F0B1
:10278000E7F908B1FFF7AEF8B463A66306B070BD11
:10279000002001404438024000080240106402401A
:1027A00080150020F8B5044600200E46009094F8ED
:1027B0003C10012907D0012184F83C1021688B6866
:1027C000DB0702D011E00220F8BD8B6843F0010363
:1027D0008B604049404B0968B1FBF3F101EB4101CB
:1027E00000E0491E00910029FBD121688B68DB05C0
:1027F00003D58B6823F480738B6021688B68DB07BB
:102800005DD0236C40F20165AB4343F480732364D5
:102810004968490505D5216C21F4005141F48051E6
:102820002164216CC90404D5616C21F00601616446
:1028300000E0606484F83C00A16B2948274DC86320
:10284000A16B28480864A16B2748C86421686FF011
:10285000220008602068416841F080614160206882
:10286000816841F4807181602168134632464C31A1
:10287000A06B00F0D7F968681C49C006206806D034
:10288000884224D1816811F0405F13D01FE0884254
:10289000F8D0174A904203D1D1F80423D206F1D0E0
:1028A000144A904213D1D1F8041301F01F011029EA
:1028B000E8D30CE0816841F08041816007E0206C42
:1028C00040F010002064606C40F001006064002063
:1028D000F8BD00000000002040420F00002301402E
:1028E000C50E0008490F0008330F00080020014002
:1028F00000210140002201402DE9F0410446876D8E
:1029000000F0E4FA064694F835000025022806D0C7
:102910008020606584F834500120BDE8F081206893
:10292000016821F0160101602068416921F08001F1
:102930004161206C08B9A06C20B12068016821F0C9
:10294000080101602068016821F0010101600CE0CC
:1029500000F0BCFA801B052807D920206065032001
:1029600084F8350084F83450D7E720680068C00741
:10297000EED194F85C103F208840B860012084F8C4
:10298000350084F834500020C7E790F8351002294C
:1029900003D08021416501207047052180F8351062
:1029A0000068016821F0010101600020704700000B
:1029B0002DE9F84304464FF00009CDF80090634834
:1029C0004FF41651A56D0068B0FBF1F72E6894F82E
:1029D0005C10082000FA01F131420FD021680A682A
:1029E00052070BD50A6822F004020A6094F85C10C2
:1029F0008840A860606D40F00100606594F85C104C
:102A00004FF0010808FA01F0304208D02168496906
:102A1000090604D5A860606D40F00200606594F876
:102A20005C1004208840304208D02168096889077A
:102A300004D5A860606D40F00400606594F85C10F7
:102A400010208840304218D021680968090714D541
:102A5000A86020680168490304D50068000308D510
:102A6000A16C07E00168C90503D4016821F00801E1
:102A70000160216C09B12046884794F85C10202041
:102A80008840304231D021680968C9062DD5A86038
:102A900094F8350005282068016806D0490347D519
:102AA000006800031DD4616C1CE021F01601016078
:102AB0002068416921F080014161206C08B9A06C57
:102AC00020B12068016821F00801016094F85C10D1
:102AD0003F208840A86084F8358084F83490216DC8
:102AE0001FE0E16B09B120468847606D00282BD0BC
:102AF000606DC00714D0052084F835002068016897
:102B000021F0010101600098401C0090B84203D8F8
:102B100020680068C007F6D184F8358084F83490C6
:102B2000E16C002910D001B02046BDE8F043084711
:102B30000168C905D5D4016821F01001016084F84D
:102B4000358084F83490CCE7BDE8F883000000209D
:102B50002DE9F041044600F0B9F906465CB10220C7
:102B600084F83500002584F834502068016821F08D
:102B7000010101600DE00120BDE8F08100F0A6F93F
:102B8000801B052805D920206065032084F83500C6
:102B9000F2E720680068C007F0D122681168204879
:102BA0000140D4E901031843D4E903363343184301
:102BB00063691843A3691843E3691843236A1843F8
:102BC0000843616A042903D1D4E90B13194308436C
:102BD000106020684069666A20F0070130460E43A5
:102BE000012704280CD1A06A0643E06A40B12046C0
:102BF000FEF7FEFA20B14020606584F83570BAE730
:102C0000206846612046FEF7DFFA94F85C203F21F9
:102C100091408160656584F835700020ACE7000064
:102C20003F8010F02DE9F0410446866D90F83400A5
:102C3000002501280DD0012084F8340094F8357067
:102C40000020012F07D084F8340002252846BDE873
:102C5000F0810220FBE7022784F83570606520468A
:102C6000FEF7F0FA94F85C103F208840B0602068CE
:102C7000016841F016010160206C20B120680168F4
:102C800041F0080101602068016841F00101016024
:102C9000DCE7000070B5044600F018F90546601C3A
:102CA00002D004480078044400F010F9401BA04210
:102CB000FAD370BD0400002001490860704700008D
:102CC000143C0140044910B50A68024202D0086071
:102CD000FFF7F2FF10BD0000143C01402DE9F84F52
:102CE000DFF8ACA1002201240AF1040B03254FF008
:102CF0000F090BF1040E00BF0B6804FA02F6334013
:102D0000B3426ED10F7907F00307012F01D0022FD4
:102D100016D187684FEA420805FA08FC27EA0C0733
:102D2000D1F80CC00CFA08FC4CEA070CC0F808C03B
:102D30004768B7430E79C6F3001696403E43466097
:102D40000E79F643B6070AD0C6684FEA420C05FA78
:102D50000CF7BE438F6807FA0CF73743C7600E794C
:102D600006F00306022E10D1D60800EB8608D8F82C
:102D7000206057074FEAD76C09FA0CF7BE430F697A
:102D800007FA0CF73743C8F8207006684FEA420C80
:102D900005FA0CF7BE430F7907F0030707FA0CF7A3
:102DA000374307604E6816F4403F6BD0394E3768A2
:102DB00047F480473760366822F0030706F4804600
:102DC0000096354E07EB060CDCF8086897074FEACB
:102DD000177809FA08F7BE43304FB84202D10027EE
:102DE0001FE04FE02E4FB84201D1012719E02D4FCF
:102DF000B84201D1022714E02B4FB84201D103277A
:102E00000FE02A4FB84201D104270AE0284FB84208
:102E100001D1052705E0274FB84201D1062700E080
:102E2000072707FA08F73743CCF80878DAF8006084
:102E30005746D1F804C09E435FEACC3C00D51E4300
:102E40003E60DBF800605F46D1F804C09E435FEA55
:102E50008C3C00D51E433E60DEF800607746D1F81A
:102E600004C09E435FEACC2C00D51E433E60084F51
:102E70000C373E68D1F804C09E435FEA8C2C00D525
:102E80001E433E60521C102AFFF436AFBDE8F88F97
:102E9000003C014044380240003001400000024044
:102EA0000004024000080240000C024000100240F2
:102EB00000140240001802400069084000D00120C0
:102EC00070470AB1816170470904FBE701488068D7
:102ED000704700000400002070B5040025D094F86D
:102EE0003D00002520B984F83C50204600F0B8F899
:102EF000242084F83D002068016821F00101016070
:102F00002068016841F4004101602068016821F4F3
:102F10000041016001F0B4F94D4A6168914201D865
:102F20004C4900E04C49884201D2012070BD4B4918
:102F30002368B0FBF1F15E6826F03F060E435E6049
:102F40006368934206D94FF4967359434FF47A73EA
:102F5000B1FBF3F12368491C1E6A26F03F0631439A
:102F600019626168914210D84900401EB0FBF1F22D
:102F7000521CC2F30B02042A01D2042022E0B0FB4F
:102F8000F1F0401CC0F30B001CE0A268F2B301EBAF
:102F9000C10303EB0116431EB3FBF6F35B1C43F4C2
:102FA00080431B0549D092B301EBC10202EB011132
:102FB000401EB0FBF1F0401CC0F30B0040F4804019
:102FC00040F400402168CA694CF6FF739A431043ED
:102FD000C861D4E9071001432068026822F0C002EA
:102FE00011430160D4E9030101432068826848F27B
:102FF000FF339A4311438160D4E9050108432168F6
:10300000CA6822F0FF021043C86001E00EE016E03B
:103010002068016841F0010101602564202084F8E6
:103020003D00256384F83E50002070BD01EB410651
:10303000431EB3FBF6F35B1CB3E70120C2E701EBD1
:103040004101401EB0FBF1F0401CC0F30B00B7E79C
:10305000A086010080841E0000093D0040420F0050
:1030600010B586B0044614216846FDF713F91349DC
:103070002068884220D112480021026842F00202F2
:103080000260006800F002000590C020009012204D
:10309000CDE901010320039004200490694609480A
:1030A000FFF71CFE06481030016841F40011016072
:1030B000006800F40010059006B010BD00540040F8
:1030C000303802400004024002488168027811440E
:1030D00081607047040000200B4810B5016841F47E
:1030E00000710160016841F480610160016841F490
:1030F00080710160032000F06FF80F2000F006F8E7
:1031000000F024F8002010BD003C024070B50D4DC9
:1031100004464FF47A712878B1FBF0F00A49096847
:10312000B1FBF0F001F067FC48B9102C07D2002287
:103130002146501E00F030F800206C6070BD012068
:1031400070BD000004000020000000200A4808B5FF
:10315000016841F480410160006800F48040009003
:103160000548001F016841F080510160006800F0CF
:103170008050009008BD000044380240002809DB60
:1031800000F01F02012191404009800000F1E02081
:10319000C0F8001170470000F0B40E4B1B680C46DD
:1031A000C3F30223C3F10705042D00D90425191D1B
:1031B000072901D2002300E0DB1E012606FA05F1F3
:1031C000491E214099409E40761E16403143F0BC76
:1031D00009F096BB0CED00E0064900F00702086814
:1031E0004FF6FF03184040EA0220034A10430860EC
:1031F000704700000CED00E00000FA0501220168B4
:10320000C0F8FC23002280F8F423886940F00060B5
:103210008861486D024A10434865002070470000ED
:103220000300001070B5164D0446A1B1012911D15B
:103230002068D0F8001E41F00101C0F8001ED4F84B
:10324000040405F0E2FD206A002803D0286840F05D
:103250000600286070BD206A28B104F021FF2868AC
:1032600020F0060028602068D0F8001E21F001013F
:10327000C0F8001ED4F80404BDE8704005F054BD49
:1032800010ED00E00068416200207047F0B503686F
:10329000586A39B19C6A4FF4827600EB14440020DE
:1032A0004D1E0AE040EA024098620FE006EB8007FC
:1032B000DF59401C04EB1744C0B2A842F6D344EADD
:1032C00002404FF4807202EB810158500020F0BDA3
:1032D000D0F8040405F06ABCC1EBC10200EB820225
:1032E000D0F80404926C05F0D7BBC1EBC10200EB2F
:1032F0008202D0F80404D2F8082205F021BCD0F8EC
:10330000040405F055BC70B504460B0601F00F002F
:10331000C0EBC00104EB81014FF001024FF000054A
:1033200003D581F83D203C3103E081F8FD5101F5E2
:10333000FE71087094F8BC03012808D084F8BC23FF
:10334000206806F0E5F884F8BC53002070BD022028
:1033500070BD70B5044601F00F006268904201D95B
:10336000012070BD0B0601F00F01C1EBC10104EBA0
:1033700081014FF001024FF0000503D581F83D2097
:103380003C3103E081F8FD5101F5FE718D7008704C
:1033900094F8BC03012808D084F8BC23206806F008
:1033A000AFFA84F8BC53002070BD022070BD10B588
:1033B000044690F8BC0301280AD0012084F8BC031D
:1033C000080607D501F00F01206806F0FFFB04E0B6
:1033D000022010BD206806F0E5FB002084F8BC0345
:1033E00010BD01F00F01C1EBC10100EB8100D0F86D
:1033F000140270472DE9F04104460F0601F00F005A
:10340000C0EBC00104EB81014FF001064FF0000555
:1034100003D581F83D603C3103E081F8FD5101F5B1
:10342000FE7108708A60CB704A7802B1C880022BA6
:1034300000D10D7194F8BC03012809D084F8BC6355
:10344000206805F0BDFF284684F8BC53BDE8F08134
:103450000220FBE770B50C4601F00F05C5EBC50176
:1034600000EB8101C1F81032C1F808220023C1F835
:10347000143281F8FD3181F8FC51036901F5FE71C8
:10348000012B00D10A612207027C006803D006F0FC
:103490008FFA002070BD06F07BF9FAE770B504469C
:1034A0000D4601F00F006168884201D9012070BD0E
:1034B00029064FF000064FF0010207D5C0EBC0010E
:1034C00004EB810181F83D203C3107E0C5EBC501EB
:1034D00004EB810181F8FD6101F5FE718A700870CD
:1034E00094F8BC03012807D084F8BC23206806F0B8
:1034F00033FA280702D007E0022070BD217C04F5D2
:103500007172206806F0D0F984F8BC63002070BDA9
:1035100070B50C4601F00F05C5EBC50100EB81014C
:103520000B658A6400234B65012381F83D3001F867
:103530003C5F0369012B00D10A612207027C00680D
:1035400003D006F035FA002070BD06F021F9FAE745
:103550002DE9FC5F05680446284606F05AFB002862
:103560007ED1206806F081FB002879D0206806F023
:103570007CFB800704D52068416901F002014161AC
:10358000206806F072FBC10604F57170009034D516
:103590002068816921F0100181612F6A07F00F0016
:1035A000C0EBC00004EB8006C7F3434006F5FE768F
:1035B000022802D0062811D01AE047F6F070074220
:1035C00016D0C7F30A1217462846F16806F051FBD9
:1035D000F0683844F060B069384408E008222846B2
:1035E000009906F046FBB169C7F30A100844B061C0
:1035F0002068816941F010018161206806F035FB87
:1036000000034FF001094FF0080B5BD5002620683E
:1036100006F00AFB0746DFF8A4A351E0F8074DD0F7
:10362000F1B2206806F019FB8046C00707D005EB11
:103630004611C1F8089B3146204603F05DFE5FEA63
:10364000087022D505EB4611C1F808BB2068026C52
:1036500000EB46100192D0F8081B524507D900E054
:10366000A9E1090403D54FF40041C0F8081B204626
:1036700000F0B0FA0198504507D92069012804D11B
:1036800020680121009A06F00FF95FEAC86004D5AE
:1036900005EB46111020C1F8080B5FEA886004D5DD
:1036A00005EB46112020C1F8080B5FEA884005D5DC
:1036B00005EB46114FF40050C1F8080B7F08761C4B
:1036C000002FABD1206806F0D0FA40034FF0000A7B
:1036D0005CD5206806F0A1FA0746002654E0F807FA
:1036E00050D0F1B2206806F0A6FA8046C00723D079
:1036F00006F00F0209FA02F0D5F834288243C5F823
:10370000342805EB4610C0F80899206901280FD12C
:10371000C6EBC60004EB8000D0E91121114481649E
:1037200036B9206D20B920680121009A06F0BCF856
:10373000F1B22046FFF7D0FD5FEA087003D505EB34
:103740004611C1F808B95FEAC86004D505EB461117
:103750001020C1F808095FEA486004D505EB46115E
:103760004020C1F808095FEA887004D505EB4611CE
:103770000220C1F808095FEA086003D531462046F7
:1037800003F020FE7F08761C002FA8D1206806F0E9
:103790006CFA002811DAD5F8040820F00100C5F809
:1037A000040894F8F403012839D0204600F0F6F913
:1037B0002068416901F000414161206806F055FA36
:1037C00000050BD5D5F80808C00702D0204600F048
:1037D0004FFA2068416901F400614161206806F0F8
:1037E00044FA00010AD52068416901F00061416195
:1037F00094F8F403D0B1204600F03AFA206806F0BD
:1038000034FAC00476D5D5F8040820F00100C5F8D4
:1038100004081021206806F0D9F9002135E084F869
:10382000F4A300212046FFF7FDFCC1E784F8F493E0
:103830002068406D0121C0F38300C4F8F8032046DE
:10384000FFF7F0FCDAE700BF05EB41104FF67F32DF
:10385000C0F80829D0F8003923F40013C0F8003963
:10386000D0F8003943F00063C0F80039C0F8082BE5
:10387000D0F8002B22F40012C0F8002BD0F8002B57
:1038800042F00062C0F8002B491C60688842DBD817
:10389000D5F81C0840F00110C5F81C08206B60B179
:1038A000D5F8840840F00B00C5F88408D5F8440822
:1038B00040F00B00C5F844080CE0D5F8141842F2AB
:1038C0002B000143C5F81418D5F8100840F00B0080
:1038D000C5F81008D5F8000820F4FE60C5F8000807
:1038E000217C2068009A05F0DFFF2068416901F41F
:1038F00080514161206806F0B8F9800415D5206830
:1039000005F09EFD206806F077F9E06000F0B2FC5B
:103910000146227B206806F00BFA204600F028F9C9
:103920002068416901F400514161206806F09DF969
:10393000000707D5204600F035F92068416901F0FD
:1039400008014161206806F090F9C00208D5002105
:10395000204600F035F82068416901F4801141618A
:10396000206806F082F9800208D50021204600F088
:103970002BF82068416901F400114161206806F0CC
:1039800074F9400007D52046FFF7A2FC2068416982
:1039900001F080414161206806F067F940070AD5CF
:1039A00020684568680702D52046FFF7A8FC206814
:1039B000416829434160BDE8FC9F00000A30544F34
:1039C000D0F8040405F04EB9D0F8040405F05AB953
:1039D0002DE9F0418AB0040005D094F8BD032668B3
:1039E000002520B108E001200AB0BDE8F08184F88C
:1039F000BC53204600F064F8032084F8BD03F06B4C
:103A0000C00500D42561206805F0BCFE04F110015A
:103A1000282288466846FCF724FC94E80F0005F04D
:103A20001DFD0226C8BB0021206806F041F90020D8
:103A300001270EE0C0EBC00104EB810181F83D706D
:103A400001F83C0FC880CD708D60CD60401CC0B2C5
:103A50004D6161688142EDD8002011E0C0EBC001EA
:103A600004EB810181F8FD5181F8FC0181F8FF51DF
:103A7000C1F80452C1F80852401CC0B2C1F810523B
:103A800061688142EAD8282241466846FCF7E9FB92
:103A900094E80F0005F0BEFD10B184F8BD63A2E705
:103AA00084F8385084F8BD73606A012802D120463A
:103AB000FFF7A4FB206805F09FFD002094E70000BD
:103AC00010B59EB00446142117A8FCF7E3FB5C2157
:103AD0006846FCF7DFFB2068B0F1A04F42D14FF4FD
:103AE0008070009004200224CDE908046021CDE913
:103AF000060101200B90C0061590684600F008F9F9
:103B000008B1FDF7EFFE18480021026842F00102FB
:103B10000260006800F001001C904FF4C050CDE935
:103B200017040320CDE919100A201B9017A90F488C
:103B3000FFF7D4F80C48001D016841F080010160D6
:103B400009481430016841F4804101600068002296
:103B500000F480401C9011464320FFF71DFB4320DA
:103B6000FFF70CFB1EB010BD3038024000000240D1
:103B700070B50446C068012570B1022801D0FDF778
:103B8000B1FE2946D4F8040405F0E8F8D4F804049A
:103B9000BDE8704005F09BB80025F2E7D0F80404BA
:103BA00005F0C2B8D0F8040405F0C8B810B5044652
:103BB00090F8BC0301280BD0012084F8BC0384F8E2
:103BC0003810206806F0A2F8002084F8BC0310BD6D
:103BD000022010BDD0F8042400F57171104605F0E4
:103BE000C9B810B50446006894F8BC13012906D082
:103BF000012184F8BC13A16A012902D008E0022047
:103C000010BDA169012903D0816B41F4803181632A
:103C1000206805F0C1FF206805F0E0FC002084F872
:103C2000BC0310BD70B50446006894F8BC1305468B
:103C300001290FD0012184F8BC1305F0A3FD2068F1
:103C400005F0DAFC1021206805F0C0FFA06A012809
:103C500002D008E0022070BDA069012803D0A86B43
:103C600020F48030A863002084F8BC0370BD0000FD
:103C700010B50446D0F8040405F0C7F82068D0F861
:103C8000001E41F00101C0F8001E206A002804D087
:103C90000248016841F00601016010BD10ED00E02E
:103CA0002DE9F8431748016841F080510160006830
:103CB000154F00F08050012600903E64FFF706F992
:103CC00005464FF47A78114C05E000BFFFF7FEF887
:103CD000401B40450DD86068C003F7D57E64FFF7F0
:103CE000F5F80546464607E0FFF7F0F8401BB042FE
:103CF00002D90320BDE8F88360688003F4D5002072
:103D0000F8E700004038024000000E42007000401A
:103D10002DE9F84F044600260078F84D3746C007D5
:103D200008D02868A16B20F0C06008432860A06B11
:103D300000B901262078800708D52868E16B20F0BB
:103D4000C05008432860E06B00B901262078400786
:103D50000ED52868216B20F4401008432860206BA2
:103D6000B0F5801F01D010B102E0012600E001276C
:103D7000207800070ED52868616B20F440000843C6
:103D80002860606BB0F5800F01D010B102E0012611
:103D900000E0012720784FF0000A80064FF0010B69
:103DA00063D5D6484C38016841F080510160006805
:103DB000DFF84C9300F080500090D9F8001041F4E7
:103DC0008071C9F80010FFF781F8804606E000BF57
:103DD000FFF77CF8A0EB080002286FD8D9F80000A4
:103DE000C005F5D5DFF81483A8F11C08D8F8000049
:103DF00010F4407024D0B4F8401001F440718142B6
:103E00001ED0D8F80010BF4A21F44071C2F800B0AB
:103E1000C2F800A0C8F80010D8F80000C0070FD002
:103E2000FFF754F8814607E0FFF750F8A0EB0901CF
:103E300041F288308142D0D8D8F800008007F3D50D
:103E4000216CAE48C1F301228438032A37D00168BF
:103E500021F4F811C0F80010D8F80010B4F8402090
:103E6000C2F30B021143C8F800102078C00604D535
:103E7000A54894F85810C0F8E01120780106A3482E
:103E800005D50168E26C21F44001114301602178FD
:103E9000490605D50168A26C21F0806111430160DB
:103EA0002188C90514D50168626D21F000611143B4
:103EB0000160616DB1F1006F09D009E01DE1026898
:103EC000934B22F4F81219400A430260C4E7012719
:103ED0002188890505D50168626C21F08051114364
:103EE00001602188DFF82C92490509D50168226D0F
:103EF00021F0005111430160206DB0F1005F04D04A
:103F00001EB92068B0F5006F7ED18349C1F868A062
:103F1000FEF7DCFF794E80468C3E05E0FEF7D6FFCB
:103F2000A0EB0800022886D830680001F6D421688A
:103F30007A48CA0701D0A26B1AB1890717D5E16B7D
:103F4000A9B901680268C1F30141491CD4E9013CE7
:103F500043EA8C1321F0004CC2F3036209EB0C41DD
:103F600041EA02610B43217D43EA0171016021684E
:103F70004A0703D5226BB2F5801F05D0090721D56A
:103F8000616BB1F5800F1DD101680268C1F3014179
:103F9000491CD4E9013C43EA8C1321F0004C09EBA5
:103FA0000C4194F810C0C2F3027241EA0C610B4359
:103FB00043EA027101602968A26A21F01F01521EC2
:103FC00011432960218849051AD5216DB1F1005F9F
:103FD00016D101680268C1F30141491CD4E9013CD2
:103FE00043EA8C13D4F80CC0C2F302724FEA5C08A7
:103FF00009EB084C4CEA41610B4343EA0271016052
:104000002188090511D500E01FE0D4E9011241EA39
:104010008211E268530809EB0342237C42EA0362FF
:104020001143227D41EA027101603B49C1F868B049
:10403000FEF74CFF804605E0FEF748FFA0EB0800C6
:10404000022874D830680001F6D5EFB3DFF8C880D5
:10405000C8F870A0FEF73AFF304E0746843E04E0F1
:10406000FEF734FFC01B022861D83068C0438000CF
:10407000F6D521682A484A0701D5226B1AB10907EB
:104080001DD5616BD9B90168D4E90623C1F301419B
:10409000491C42EA831221F0004309EB034194F8E2
:1040A000243041EA03610A4302602968E26A6FF042
:1040B000FF0321F4F85103EB022211432960218808
:1040C000C90514D5616D00E038E0B1F1006F0ED183
:1040D0000168D4E9062342EA8312236AC1F303612B
:1040E0005C0809EB044343EA01610A430260C8F833
:1040F00070B0FEF7EBFE04461CE018E08C3802407E
:1041000000700040400E4742001047429438024081
:10411000FFFCFF0F0000FFFF000047428438024011
:1041200088380240FEF7D2FE001B022802D9032085
:10413000BDE8F88F3068C0438000F3D40020F7E773
:104140002DE9F0470E46050065D0DFF81481D8F858
:104150000000F7B200F00F00B04207D288F80070FC
:10416000D8F8000000F00F00B04254D128683D4C50
:10417000810712D5400703D5206840F4E050206045
:104180002878000703D5206840F46040206020684C
:10419000A96820F0F000084320602878C0072DD0DF
:1041A000304968680839012812D0022813D0032842
:1041B00011D00968890700292DDA216821F003014F
:1041C00001432160FEF782FE814641F2883A0EE00B
:1041D00009688903EFE709688901ECE7FEF776FED5
:1041E000A0EB0901514502D90320BDE8F087206802
:1041F000696800F00C00B0EB810FEFD1D8F8001027
:10420000404601F00F01B14207D90770006800F085
:104210000F00B04201D00120E7E72878400705D51C
:104220002068E96820F4E0500843206028780007FF
:1042300006D52068296920F4604040EAC10020606A
:1042400000F03EF82168084AC1F30311515CC840F0
:104250000649086006480068FEF758FF0020C4E7DA
:10426000003C024008380240CCF500080000002065
:10427000080000200148006870470000000000208E
:104280000448054900680968044AC1F38221515C69
:10429000C84070470000002008380240DCF50008E4
:1042A0000448054900680968044AC1F34231515C79
:1042B000C84070470000002008380240DCF50008C4
:1042C000224810B5006810F00C02214815D04110AA
:1042D000042A11D01D4C241F082A0FD00C2A0CD1FF
:1042E0002268236802F03F025B0221D52068C0F3F8
:1042F0008810A0FB010120E0084610BD2268236859
:1043000002F03F025B0205D52068C0F38810A0FBD5
:10431000010104E02168C1F38811A1FB0001002321
:10432000FBF76EFF2168C1F30141491C49000AE017
:104330002168C1F38811A1FB00010023FBF760FF96
:104340002168C1F30271B0FBF1F010BD08380240E2
:104350000024F4002DE9F84F04007DD0DFF878B395
:104360002078ABF10407C007A7F1040550D0DBF8B3
:1043700000105846C1F3810101290FD00168C1F333
:104380008101022902D13968490207D40068C0F3CB
:104390008100032809D13868400206D528688003C7
:1043A00036D560680028D8D032E06068B0F5803F2C
:1043B00010D0B0F5A02F286810D020F480302860ED
:1043C000286820F4802028606068A0B1FEF77EFD98
:1043D00006460CE0286840F48030F4E740F4802082
:1043E0002860F7E7FEF772FD801B642876D82868FE
:1043F0008003F7D50CE0FEF769FD064605E000BF37
:10440000FEF764FD801B6428F0D828688003F7D489
:104410002078DFF8C89280074FF0000A44D5DBF817
:104420000010584611F00C0F0FD00168C1F3810144
:10443000022902D13968490207D50068C0F381001A
:1044400003280AD13868400207D42868800715D5A8
:10445000E068012800D111E03AE1E068B0B1012044
:10446000C9F80000FEF732FD064604E0FEF72EFD17
:10447000801B0228BAD828688007F7D528682169E8
:1044800020F0F80040EAC10028600DE0C9F800A063
:10449000FEF71CFD064604E0FEF718FD801B02280F
:1044A0001CD828688007F7D42078000727D5DFF8C4
:1044B00028828B48616908F16C0881B10121016093
:1044C000FEF704FD064604E0FEF700FD801B02280F
:1044D00004D8D8F800008007F6D510E089E0C0F8CD
:1044E00000A0FEF7F3FC064605E000BFFEF7EEFC79
:1044F000801B02287DD8D8F800008007F6D42078E9
:10450000400769D574484FF0000838300068C00093
:104510000BD471483830016841F080510160006867
:104520004FF0010800F0805000906E4E3068C005DA
:1045300011D4306840F480703060FEF7C7FC009002
:1045400006E000BFFEF7C2FC0099401A022850D8CE
:104550003068C005F6D5604EA068683601280FD0D7
:104560000528306810D020F001003060306820F05D
:1045700004003060A068B8B1FEF7A8FC00900FE01E
:10458000306840F00100F4E740F004003060F7E7E5
:10459000FEF79CFC0099411A41F28830814264D8B0
:1045A00030688007F4D50EE0FEF790FC009007E03D
:1045B000FEF78CFC0099411A41F28830814254D8B0
:1045C00030688007F4D4B8F1000F05D04248383085
:1045D000016821F080510160A069A8B3DBF80010E8
:1045E000C1F38101022947D00228C9F860A005D093
:1045F00000E03AE0FEF76AFC044639E0FEF766FCAC
:10460000064604E0FEF762FC801B02282DD82868CD
:104610008001F7D4F4E907010843E168324A490808
:1046200002EB0141A26841EA82110843217C40EA81
:104630000160217D40EA017038600120C9F8600006
:10464000FEF744FC044606E044E000BFFEF73EFCF3
:10465000001B022809D828688001F7D53AE000BF7E
:10466000FEF734FC001B022802D90320BDE8F88FB6
:1046700028688001F4D42DE00128F7D03868E26979
:1046800000F48001914223D1226A00F03F0191425F
:104690001ED147F6C071626A0140B1EB821F17D18B
:1046A000A26A4FF0FF3300F4403103EB5202B1EB4A
:1046B000024F0DD194F82C2000F07061B1EB026F25
:1046C00006D194F8301000F0E040B0EB017F01D04B
:1046D0000120CBE70020C9E708380240000047422C
:1046E000800E4742007000400000FFFF70B50400DC
:1046F00009D0606A002540B125616561A56294F822
:10470000510040B10CE0012070BD6068B0F5827FBF
:10471000F4D0E561F2E784F85050204600F044F808
:10472000022084F851002068016821F040010160F6
:10473000A088218900F4827001F404410843A18912
:1047400001F400610843217C01F002010843217D4E
:1047500001F001010843218B01F400710843217F1E
:1047600001F03801084394F8201001F0800108435B
:10477000218D01F40051084321680860A0690421DB
:1047800001EA104094F8241001F010010843216858
:1047900048602068C16921F40061C161656501203C
:1047A00084F85100002070BD10B586B00446142175
:1047B0006846FBF76FFD14492068884221D11348F1
:1047C0000021026842F480420260006800F48040E8
:1047D00005900E481038026842F00202026000683C
:1047E00000F0020005904FF4604000900220CDE9F7
:1047F0000101032003900520049069460448FEF758
:104800006DFA06B010BD000000380040403802408C
:10481000000402402DE9F84F044690F850000027AC
:104820000A9E1D4692468B464FF0010901280ED084
:10483000012084F85000FEF749FB804694F85100AF
:10484000616801280CD0B1F5827F07D102E0022017
:10485000BDE8F88FA16809B9042801D00227C2E099
:10486000BBF1000F27D0BAF1000F24D01DB394F88C
:104870005100042802D0052084F851000020606512
:10488000C4F838A0E587A587C4F830B0E586A586CA
:104890002064606420680168490603D4016841F01F
:1048A00040010160E068B0F5006F606805D0E8B3D2
:1048B000012D46D07FE0012795E008B1012D39D1C7
:1048C000206B21680088C860206B801C2063E08E0C
:1048D000401EE0862EE02068816889070FD5E18EB2
:1048E00069B1B9F1010F0AD1216B0988C160206B50
:1048F000801C2063E08E401EE0864FF00009206897
:104900008168C9070CD0E18F51B1C068A16B0880E4
:10491000A06B801CA063E08F401EE0874FF0010970
:10492000FEF7D4FAA0EB0800B04200E009E001D3A2
:10493000701C50D1E08E0028CDD1E08F0028CAD164
:104940003FE0206B216800780873206B401C2063D7
:10495000E08E401EE0862EE02068816889070FD532
:10496000E18E69B1B9F1010F0AD1216B09780173A8
:10497000206B401C2063E08E401EE0864FF0000953
:1049800020688168C9070CD0E18F51B1C068A16B64
:104990000870A06B401CA063E08F401EE0874FF0C2
:1049A0000109FEF793FAA0EB0800B04202D3701C95
:1049B00001D010E07EB1E08E0028CDD1E08F00283C
:1049C000CAD142463146204603F0DCF928B101271E
:1049D0002020606507E0032705E0A06818B920687B
:1049E000C16880680090012084F85100002084F89C
:1049F000500038462CE710B5401EB0F1807F01D33F
:104A0000012010BD4FF0E02460610F21601707F016
:104A100077FF0020A06107202061002010BD7047B3
:104A20007047000070B590F83C20012A32D0012474
:104A300080F83C40022280F83D2003685A689D6857
:104A400022F070060A6832435A60134B02689A4299
:104A500014D0B2F1804F11D0104B9A420ED0104BAF
:104A60009A420BD00F4B9A4208D00F4B9A4205D076
:104A70000E4B9A4202D00E4B9A4204D1496825F05F
:104A800080031943916080F83D40002180F83C107C
:104A9000084670BD022070BD0000014000040040C7
:104AA00000080040000C00400004014000400140AC
:104AB0000018004010B5040003D094F83D0010B178
:104AC00007E0012010BD002084F83C00204600F0E3
:104AD0001FF8022084F83D00211D206803F04AFBE6
:104AE000012084F8460084F83E0084F83F0084F8F2
:104AF000400084F8410084F8420084F8430084F8C0
:104B0000440084F8450084F83D00002010BD0000FA
:104B100008B5234A01682348914208D1016841F051
:104B200002010160006800F00200009008BD1E4A0A
:104B300091420ED1016841F0080101600068002235
:104B400000F00800009011463220FEF725FB3220CD
:104B500022E0164A91420ED1016841F01001016035
:104B60000068002200F01000009011463620FEF789
:104B700013FB362010E00E4A9142D7D1016841F074
:104B8000200101600068002200F020000090114622
:104B90003720FEF701FB3720BDE80840FEF7EEBAEC
:104BA0000004004040380240000C0040001000406B
:104BB0000014004090F83D10012901D001207047F9
:104BC000022180F83D100168CA6842F00102CA6003
:104BD00000681149884214D0B0F1804F11D00F49BC
:104BE00088420ED00E4988420BD00E49884208D028
:104BF0000D49884205D00D49884202D00C498842AF
:104C000004D1816801F00701062903D0016841F051
:104C100001010160002070470000014000040040D5
:104C200000080040000C004000040140004001402A
:104C30000018004070B5044690F83C00002501289B
:104C400017D0012684F83C60022084F83D002068DB
:104C5000826822F0770222F47F428260086850283E
:104C600038D00DDC20284FD005DC90B3102811D1AE
:104C70004AE0022070BD302846D040280AD13BE0EF
:104C800060282FD070280DD0B0F5805F03D0B0F52C
:104C9000005F12D0012584F83D60002084F83C00BC
:104CA000284670BDCB68D1E90121206803F0D3FA12
:104CB0002068816841F0770109E0CB68D1E90121E2
:104CC000206803F0C8FA2068816841F4804181605F
:104CD000E1E719E0CA684968206803F091FB5021B8
:104CE000206806E0CA684968206803F09AFB6021E2
:104CF000206803F0BAFACEE7CA684968206803F072
:104D00007FFB40212068F4E7226801461046F0E767
:104D1000704770B50446006801694FF00005C9434B
:104D2000890715D4C168C943890711D4E91E0161F7
:104D300001202077206880698007204602D0FFF795
:104D4000E7FF04E000F0C2F8204600F054F92577B0
:104D500020680169C943490717D4C168C943490795
:104D600013D46FF00401016102202077206880696C
:104D700010F4407F204602D0FFF7CAFF04E000F0A5
:104D8000A5F8204600F037F9257720680169C94366
:104D9000090716D4C168C943090712D46FF0080186
:104DA0000161042020772068C0698007204602D076
:104DB000FFF7AEFF04E000F089F8204600F01BF991
:104DC000257720680169C943C90617D4C168C9435A
:104DD000C90613D46FF01001016108202077206804
:104DE000C06910F4407F204602D0FFF791FF04E035
:104DF00000F06CF8204600F0FEF825772068016985
:104E0000C943C90708D1C168C943C90704D1891E6C
:104E10000161204600F054F920680169C943090680
:104E200009D4C168C943090605D46FF08001016146
:104E30002046FFF7F4FD20680169C943490609D4FB
:104E4000C168C943490605D46FF04001016120469D
:104E500000F064F920680169C94389060BD4C16870
:104E6000C943890607D46FF0200101612046BDE8DF
:104E70007040FFF7D5BD70BD10B586B00446142153
:104E80006846FBF707FA0E492068884215D10D489D
:104E90000021026842F004020260006800F0040091
:104EA00005904FF4007000900220CDE90101CDE99A
:104EB000031069460448FDF711FF06B010BD00005D
:104EC000000400403038024000080240704770B5CE
:104ED000044690F83C0000260D4601280FD0012022
:104EE00084F83C006AB1042A1DD0082A2FD00C2A6D
:104EF0003FD00126002084F83C00304670BD0220DF
:104F000070BD206803F0BAF92068816941F008019A
:104F100081612068816921F00401816120688169D3
:104F20002A69114311E0206803F0D8F920688169EB
:104F300041F4006181612068816921F480618161AF
:104F4000206881692A6941EA02218161D2E72068EB
:104F500003F0FAF92068C16941F00801C1612068D5
:104F6000C16921F00401C1612068C1692A69114346
:104F700011E0206803F01CFA2068C16941F4006167
:104F8000C1612068C16921F48061C1612068C16983
:104F90002A6941EA0221C161ACE710B5040003D0DF
:104FA00094F83D0010B107E0012010BD002084F806
:104FB0003C00204600F01EF8022084F83D00211D30
:104FC000206803F0D7F8012084F8460084F83E00FA
:104FD00084F83F0084F8400084F8410084F84200DF
:104FE00084F8430084F8440084F8450084F83D00C8
:104FF000002010BD7047704710B50446022249B129
:1050000004290ED0082913D094F84100012816D0A5
:10501000012010BD94F83E000128F9D184F83E200B
:105020000FE094F83F000128F2D184F83F2008E017
:1050300094F840000128EBD184F8402001E084F886
:1050400041200122206803F0F9F816492068164A29
:10505000884201D0904203D1436C43F4004343643F
:105060002068884213D0B0F1804F10D00F49884299
:105070000DD00F4988420AD00E49884207D090428D
:1050800005D00D49884202D00C49884204D181687C
:1050900001F00701062903D0016841F00101016018
:1050A000002010BD00000140000401400004004049
:1050B00000080040000C0040004001400018004083
:1050C00010B500680F49104C884206D12068401C7A
:1050D00020606068401C606010BD0C498842FBD1B4
:1050E0000B4800880121FDF7ABF90A49088020210F
:1050F0000948FDF7E1FE0028EED1A068401CA06041
:1051000010BD00000010004020000020000C0040F6
:105110001C0000201400002000040240704770476B
:1051200070470000F8B5016804460868CA684B6912
:1051300010F00F0F4FF0000559D003F0010602F4F4
:105140009077374365D0C10705D0D10503D5216CD1
:1051500041F001012164410705D5D90703D0216C35
:1051600041F002012164810705D5D90703D0216CE4
:1051700041F004012164010707D502F02001314309
:1051800003D0216C41F008012164216C00293AD040
:10519000800604D5900602D5204603F0A8F92068C1
:1051A0004069216CC0F38010090700D460B3204629
:1051B00003F076F920684069400621D52068143054
:1051C00050E8001F21F0400140E80012002AF5D10C
:1051D000A06BA8B16C490165A06BFDF7D6FB002858
:1051E00011D0A06B016D01B0BDE8F0400847830607
:1051F0000FD593060DD52046BDE8F84003F077B9EA
:105200002046FFF78DFFF8BD2046FFF789FF256494
:10521000F8BD266B2023012E79D1C60677D5D60698
:1052200075D50868486800904869400640D5A16B6C
:10523000086840680004000CEAD0A28D8242E7D9D9
:10524000E085C869B0F5807F2DD020680C3050E82B
:10525000001F21F4807140E80012002AF5D1206877
:10526000143050E8001F21F0010140E80012002A2C
:10527000F5D12068143050E8001F21F0400140E8CB
:105280000012002AF5D184F83E30256320680C30E6
:1052900050E8001F21F0100140E80012002AF5D16B
:1052A000A06BFDF729FBA08DE18D401A81B229E0AA
:1052B000A08DE18D401A81B2E08D0028A8D0002990
:1052C000A6D020680C3050E8002F22F4907240E8FD
:1052D0000026002EF5D12068143050E8002F22F06F
:1052E000010240E80026002EF5D184F83E30256307
:1052F00020680C3050E8002F22F0100240E8002314
:10530000002BF5D12046FFF70AFFF8BDFFE70506A1
:105310002BD5150629D594F83D002128F5D1A06894
:10532000B0F5805F01D12069B0B1206A411C2162D3
:10533000216800784860E08C401E0004000CE08486
:10534000E3D12068C16821F08001C1602068C16894
:1053500041F04001C160D8E7206A0088C0F308002E
:105360004860206A801C2062E5E74006CDD55006E3
:10537000CBD5CA68204622F04002CA6084F83D308E
:1053800000F013F9C1E700009184000870B5040033
:1053900004D094F83D00002510B106E0012070BD56
:1053A00084F83C50204600F023F8242084F83D0087
:1053B0002068C16821F40051C160204603F0F8F86C
:1053C0002068016921F4904101612068416921F060
:1053D0002A0141612068C16841F40051C16025641F
:1053E000202084F83D0084F83E00002070BD0000BD
:1053F00010B586B0044614216846FAF74BFF1849E9
:105400002068884229D117480021026842F0100222
:105410000260006800F0100005901248143802681D
:1054200042F001020260006800F0010005904FF4B4
:10543000C06000900220CDE9010103200390072005
:10544000049069460848FDF749FC002211462520D2
:10545000FDF7A2FE2520FDF791FE06B010BD00006D
:1054600000100140443802400000024090F83E30F5
:10547000202B0ED159B152B190F83C30012B08D0FD
:10548000012380F83C300023036303F017B90120A7
:105490007047022070470000104910B588421CD1A7
:1054A0000F480178A02906D00146BDE8104001222E
:1054B0000A48FFF7DBBF002101700AA007F0F8F9E6
:1054C000BFF34F8F0A4801680A4A01F4E0611143B3
:1054D0000160BFF34F8F00BFFDE710BDAC17002088
:1054E0002C000020C8EDBCFEB8B4CEBB0D0A0000F5
:1054F0000CED00E00400FA052DE9F843044690F8AD
:105500003D001F4616460D4620284CD1C5B1BEB100
:1055100094F83C00012846D0012084F83C004FF06C
:105520000008C4F84080212084F83D00FDF7CEFC3F
:10553000A6848146E684A068B0F5805F03D004E0CD
:105540000120BDE8F883206928B12E465FF00005F0
:1055500084F83C800EE00026FAE78021204603F024
:10556000C8F8A0B9AEB116F8010B21684860E08C0C
:10557000401EE084E08C4B464FF00002009700286C
:10558000EBD14FF04001204603F0B3F830B10320D7
:10559000D7E735F8020BC0F30800E6E7202084F8CF
:1055A0003D000020CDE70220CBE77047FEE700007A
:1055B000054B024653F82100904201D1012000E042
:1055C000002043F82120704774AC00202DE9F05FE3
:1055D0008B46804600274FF001091A4E2DE001202E
:1055E000FBF746FEC6F89C9200242546A246012001
:1055F000FBF73EFE4846C6F89892FBF739FE600678
:10560000040ED6F81C0208B1641CE4B20120FBF7BA
:105610002FFEC6F898A20120FBF72AFE6D1C082D6C
:10562000E5DBA8F10100874202D100F08DF801E02E
:1056300000F044F80BF807407F1C4745CFDBBDE87E
:10564000F09F00000080404270B50D4C0125C4F869
:105650009C522846FBF70CFEC4F898522846FBF7EC
:1056600007FED4F81C0248B10120FBF701FE002020
:10567000C4F89802C4F89C02284670BD0025F3E7E0
:105680000080404270B50C4C0025C4F898520120AF
:1056900004F52674FBF7ECFD012666603046FBF747
:1056A000E7FD26603046FBF7E3FD65603046FBF71B
:1056B000DFFD256070BD00000080404270B50B4CDE
:1056C0000026C4F89C62012004F52674FBF7D0FD87
:1056D000012525602846FBF7CBFD2846FBF7C8FDD2
:1056E00026602846FBF7C4FD656070BD008040421F
:1056F0002DE9F0410026134D0446B0460127012054
:10570000FBF7B6FD200602D5C5F89C7201E0C5F88E
:105710009C820120FBF7ACFDC5F898723846FBF778
:10572000A7FD3846FBF7A4FDC5F898826000761CFB
:1057300044B2082EE3DB0120FBF79AFDBDE8F041FF
:10574000FFF782BF0080404270B50B4C0125C4F8C2
:105750009C52284604F52674FBF78AFD25602846EE
:10576000FBF786FD2846FBF783FD002020602846D6
:10577000FBF77EFD656070BD0080404270B50C4C4B
:105780000125C4F89C52C4F89852284604F52674A2
:10579000FBF76EFD2846FBF76BFD0026666028468A
:1057A000FBF766FD26602846BDE87040FBF760BD4C
:1057B0000080404270B50B4C0020C4F89802C4F839
:1057C0009C02012004F52674FBF752FD012525609B
:1057D0002846FBF74DFD65602846BDE87040FBF7A5
:1057E00047BD000000804042F0B500230A24302568
:1057F00037261F4611E000BFB4EB107F02D905EB3E
:10580000107C01E006EB107C01F813C001EB430CA7
:1058100000015B1C8CF80170DBB29342ECD3F0BD4D
:10582000F0B504461D4616460F462A2000F042FEFB
:10583000204600F033FE304600F030FE2B2000F012
:1058400039FE384600F02AFE284600F027FEBDE863
:10585000F0402C2000F02EBE2DE9FE4F151ACDE9A8
:1058600000104FF000085E1A47464FF0FF30002D41
:1058700002DD4FF0010102E003D14FF000018B4641
:1058800002E08346C5F10005002E02DD4FF0010065
:1058900002E003D14FF00000824602E08246C5F1EB
:1058A0000006B54201DD2C4600E03446601C4FF096
:1058B0000009029019E000980C9A81B2019880B218
:1058C00000F018F8A8443744A04504DD0198A8EB7F
:1058D000040858440190A74203DD00983F1B504440
:1058E000009009F101001FFA80F902998945E2DB75
:1058F000BDE8FE8F10B514460B460246FFF790FF39
:105900002046BDE8104000F0C9BD2DE9F8431E4611
:10591000089C1546884607460B460094FFF79CFFF7
:105920003A463346414610460094FFF795FF681CFF
:1059300082B23346194638460094FFF78DFF2A4657
:105940003346414610460094FFF786FFBDE8F883D2
:105950002DE9F04780461F46581E83B21646501E5A
:1059600082B20C464046DDF82090FFF759FF0AE06E
:10597000454604E0484600F091FD6D1CADB2B542CD
:10598000F8D3641CA4B2BC42F2D3BDE8F087000097
:105990002DE9F04782469846581E83B21746501E9E
:1059A00082B20C4600265046DDF82090FFF738FF03
:1059B0000EE0554608E000BF39F8160000F06EFD15
:1059C000761C6D1CB6B2ADB2BD42F5D3641CA4B258
:1059D0004445EED3BDE8F08770B586B01421684623
:1059E000FAF758FC0124FF20CDE90004164E0225E9
:1059F00069463046CDE90245FDF770F90122FF21E5
:105A00003046FDF75EFA0720CDE900040F4E6946E7
:105A10003046CDE90245FDF761F901220721304604
:105A2000FDF74FFA3020CDE90004CDE90245084CDE
:105A300069462046FDF752F9012230212046FDF744
:105A400040FA06B070BD00000000024000040240B1
:105A50000008024070B5FFF7BFFF674D0024C5F88E
:105A60009442642005F52475FDF714F92C60642038
:105A7000FDF710F901262E606420FDF70BF9642074
:105A8000FDF708F9112000F015FD7820FDF702F967
:105A9000362000F00FFDA02000F01AFD3A2000F0A3
:105AA00009FD052000F014FDB22000F003FD0C20DC
:105AB00000F00EFD0C2000F00BFD204600F008FD6C
:105AC000332000F005FD332000F002FDB72000F088
:105AD000F1FC352000F0FCFCBB2000F0EBFC1920B1
